:100000000C9434000C943E000C943E000C943E0082
:100010000C943E000C943E000C943E000C943E0068
:100020000C943E000C943E000C943E000C943E0058
:100030000C943E000C943E000C943E000C943E0048
:100040000C943E000C943E000C943E000C943E0038
:100050000C943E000C943E000C943E000C943E0028
:100060000C943E000C943E0011241FBECFEFD8E04C
:10007000DEBFCDBF0E944B000C947A000C940000B0
:100080002A9A84E084B908952A9A8AE68A95F1F733
:1000900000C02A9808950E946D000E9440002FEF32
:1000A00084E39CE0215080409040E1F700C00000D4
:1000B00085B5887F85BD85B5816085BD8FE891E078
:1000C0000197F1F700C000000E9444008FE891E022
:1000D0000197F1F700C00000FFCF559A10926E0013
:1000E00016BC81E284BD89E085BD80E187BD85E0E5
:0800F00088BD0895F894FFCFCC
:00000001FF
