S021000041744D6567613332385020436F70726F636573736F722056322E737265638D
S11300000C9479000C9496000C9496000C94960031
S11300100C948B010C9496000C9496000C9496000E
S11300200C9496000C9496000C9496000C949600F4
S11300300C9496000C9496000C9496000C949600E4
S11300400C9496000C9496000C94CB030C9496009C
S11300500C9496000C9496000C9496000C949600C4
S11300600C9496000C9496000404170441044E0466
S11300704E044E044E044E044E044E044E044E04EC
S11300804E044E044E044E044E044E044E044E04DC
S11300904E044E044E044E044E044E044E044E04CC
S11300A04E044E044E044E044E044E044E044E04BC
S11300B04E044E044E044E044E044E044E044E04AC
S11300C04E044E044E044E044E044E04EA034E0401
S11300D001044E044E044E04FB034E044E044E042D
S11300E0F503FE034E04ED034E04F0034E044E04E8
S11300F0F80311241FBECFEFD8E0DEBFCDBF11E05F
S1130100A0E0B1E0E4EFF9E002C005900D92A6345E
S1130110B107D9F722E0A6E4B1E001C01D92AE34E4
S1130120B207E1F70E9495010C94F8040C940000C6
S1130130559A81E284BD88E085BD16BC84E087BD04
S113014010926E0081E088BD08950E94AA042A9A44
S11301502A9808958CB588608CBD4198419A0E9474
S11301609B042CB5277F2CBD089554985C98529815
S11301705A9A53985B9A289A199BFECF549A529A8A
S1130180539A08955C9854985A9A52985B9A539843
S113019028981999FECF5A985B9808955E9A8AE632
S11301A08A95F1F700C05E9808956E7F8F770E945C
S11301B0A50040985C9A5C98409A5A980E94AA00BC
S11301C05A9A0895CF93DF93EA016E7F8F770E9446
S11301D0A50040985C9A5C98BE0180E090E00E9483
S11301E0A5005B985B9A409ADF91CF9108954FEFF9
S11301F050E060E070E088E090E00E94E200089542
S113020040E750E060E070E088E090E00E94E200A7
S113021060E070E088E090E00E94D5000895CF92FD
S1130220DF92EF92FF92CF93DF936B017C01CC0CB2
S1130230DD1CEE1CFF1C6894E3F840E250E0C701AB
S1130240B6010E94E20040ED50E0C701B6010E94F1
S1130250E2000E940001C82F8823DCF783FF04C05A
S11302608EE091E00E94C804DC2FD072C073C033CA
S113027021F488E191E00E94C804DD2321F082E2A8
S113028091E00E94C8044FEF50E060E070E088E025
S113029090E00E94E200DF91CF91FF90EF90DF9019
S11302A0CF900895CF92DF92EF92FF92CF93DF9396
S11302B06B017C01EA0140E450E00E94E200AE01DF
S11302C0C701B6010E94E200DF91CF91FF90EF9049
S11302D0DF90CF900895CF9388600E9452010E94CE
S11302E00001C82F8823DCF783FF04C08EE091E06F
S11302F00E94C804C4FF04C08CE291E00E94C804B8
S1130300CF9108953C98449A80E180936C0082E0F8
S11303108093680008951F920F920FB60F921124D4
S11303200F900FBE0F901F901895569A5E9A0E94D8
S113033075040E948D040E948201209A21982998B4
S11303403A9A42983B9A439857983D9A459A0E9404
S1130350980085B5887F85BD85B5816085BD8FE8AA
S113036091E00197F1F700C000000E94CE000E94C6
S1130370B5007894FFCFCF92DF92EF92FF92CF93A4
S1130380C4E060E070E0CB01CC24D62EE72EF82E3A
S11303900E946C04092E000CAA0BBB0BBC01CD01FE
S11303A06C297D298E299F29C15071F7CF91FF9027
S11303B0EF90DF90CF9008958F929F92AF92BF926B
S11303C0CF92DF92EF92FF92CF930E94BB016B0119
S11303D07C010E94BB014B015C018C0C9D1CAE1C7A
S11303E0BF1CC814D904EA04FB04C0F4C701B60155
S11303F00E94D500C92F60E070E00E945F0460E0B5
S113040070E08C2F0E945F0482E0C80ED11CE11CB6
S1130410F11CC814D904EA04FB0440F3CF91FF9003
S1130420EF90DF90CF90BF90AF909F908F90089502
S11304302F923F924F925F926F927F928F929F92F0
S1130440AF92BF92CF92DF92EF92FF920F931F93DE
S1130450CF93DF93CDB7DEB762970FB6F894DEBFC4
S11304600FBECDBF0E94BB016D837E838F839887AF
S11304700E94BB012B013C01E89440F82D813E8190
S11304804F815885240D351D461D571D29873A87F0
S11304904B875C878D819E81AF81B88582179307D6
S11304A0A407B50708F0D5C00F2EF8E42F2EF1E00D
S11304B03F2EF02D08E412E09FEF49165104610429
S11304C0710409F0A8F45101C12CD12CE12CF12CB8
S11304D00E946C04D5018D935D01BFEFCB1ADB0A3A
S11304E0EB0AFB0AC414D504E604F70489F70AC02E
S11304F071010E946C04F70181937F01E017F107F9
S1130500C1F73CC08D809E80AF80B884C12CD12CB3
S1130510E12CF12CA501940122273327487055279B
S113052029833A834B835C83F601E85BFE4F418168
S113053050E0542F44278081482B89819A81AB81D4
S1130540BC81892B8A2B8B2B29F0C501B4010E9415
S11305506B0104C0C501B4010E94E20092E0C90E1F
S1130560D11CE11CF11CA2E08A0E911CA11CB11C3F
S1130570C414D504E604F704B9F64DC0E9E4F1E087
S11305802D813E814F8158853F5F4F4F5F4F2983B7
S11305903A834B835C83CD80DE80EF80F884460110
S11305A057018824992438E0A322BB24FA8BE98BD1
S11305B04D865E866F86788A49805A806B807C80FF
S11305C0A989BA894C9150E0542F4427FD013197F1
S11305D08081482B81149104A104B10429F0C7013E
S11305E0B6010E946B0104C0C701B6010E94E2007B
S11305F0E989FA893296FA8BE98BF2E0CF0ED11CA5
S1130600E11CF11C4C145D046E047F04C9F64D8496
S11306105E846F84788821E0521A6108710860E072
S113062070E086E00E945F048D819E81AF81B88571
S11306309F5FAF4FBF4F8D839E83AF83B88729855C
S11306403A854B855C8582179307A407B50708F4A0
S113065033CF4FEF50E060E070E088E090E00E941C
S1130660E20062960FB6F894DEBF0FBECDBFDF91F5
S1130670CF911F910F91FF90EF90DF90CF90BF909B
S1130680AF909F908F907F906F905F904F903F902E
S11306902F9008953A9A429857985F980E946C0454
S11306A0682F70E080E090E00E94A500429A4F9984
S11306B0FECF42984F9BFECF4F99FECF40984F9B61
S11306C0FECF409A08953B9A4398439A4D99FECFA2
S11306D04D9BFECF4D99FECF4D9BFECF4D99FECF46
S11306E0439808954CEB50E060EF7FEF8FE090E08B
S11306F00E946B0140E15AEE62EF7FEF8FE090E0E1
S11307000E946B0140E250E064EF7FEF8FE090E0E5
S11307100E946B0140E050E066EF7FEF8FE090E0D5
S11307200E946B0140E950E968EF7FEF8FE090E0B1
S11307300E946B0140E950E96AEF7FEF8FE090E09F
S11307400E946B0140E950E96CEF7FEF8FE090E08D
S11307500E946B0140E950E96EEF7FEF8FE090E07B
S11307600E946B014FEF50E060E070E088E090E0A1
S11307700E94E20008950E94BB0183FF0BC0DC01CC
S1130780CB01A77FBC01CD01969587957795679599
S11307900E940F0108951F920F920FB60F92112419
S11307A02F933F934F935F936F937F938F939F9375
S11307B0AF93BF93EF93FF93E091C6008E2F90E029
S11307C0FC01F197E534F10508F068C0EC5CFF4FDB
S11307D00C94C2040E94C20061C00E94B5005EC0B5
S11307E00E94CE000E94B50059C00E94DC0156C090
S11307F00E94180253C00E944A0350C00E9463031F
S11308004DC00E94BB034AC060E070EE83E090E0FC
S11308100E940F010E94F70086E391E00E94C80441
S11308200E9472038EE391E00E94C80437C060E026
S113083070E0CB010E940F0160E070E081E090E085
S11308400E940F0160E070E082E090E00E940F01DE
S113085060E070E083E090E00E940F0160E070ECE3
S113086083E090E00E940F0160E070ED83E090E08F
S11308700E940F0160E070EE83E090E00E940F019F
S11308800DC00E94C2002FEF83ED90E32150804001
S11308909040E1F700C000000E94B500FF91EF9185
S11308A0BF91AF919F918F917F916F915F914F9184
S11308B03F912F910F900FBE0F901F9018952FB757
S11308C0F894E0ECF0E0908195FFFDCF8093C600B2
S11308D02FBF80E090E00895E0ECF0E08081882371
S11308E0ECF78091C60090E0089584E090E0909346
S11308F0C5008093C400E0ECF0E0808182608083D6
S113090088E98093C10086E08093C20080E091E092
S113091090934B0280934A020895409A389A419AE0
S1130920399A2A98229A239A259A80E58CBD8DB506
S113093081608DBD08951EBC0DB407FEFDCF8EB53C
S113094090E01EBC982F88270DB407FEFDCF2EB56E
S1130950822B08950F931F938C01222733270EBDFA
S11309600DB407FEFDCF072F182F292F33270EBDF7
S11309700DB407FEFDCF6EBD0DB407FEFDCF1F9174
S11309800F910895EE0FFF1F0590F491E02D099447
S11309900F931F93CF93DF93E0914A02F0914B02A0
S11309A0238121FF1BC08C01D0E0C0E0F8018191BC
S11309B08F0160914A0270914B02DB011896ED9110
S11309C0FC911997882331F00995892B79F3DFEF8E
S11309D0CFEFECCF8AE00995892B19F08FEF9FEFC9
S11309E002C08D2F9C2FDF91CF911F910F910895FD
S10709F0F894FFCFA5
S11309F400000002000000005F046C040000567054
S1130A0470206572726F7200435345206572726F71
S1130A147200424C45206572726F720070726720D6
S1130A246572726F7200646F6E6520312100646FA9
S1090A346E652032210072
S9030000FC
