S01A000061746D6567615F6D656D6F72795F746573742E7372656384
S113000084C00000A1C000009FC000009DC000008B
S11300109BC0000099C0000097C0000095C000007C
S113002093C0000091C000008FC000008DC000008C
S11300308BC0000089C0000087C0000085C000009C
S113004083C0000081C000007FC000007DC00000AC
S11300507BC0000079C0000077C0000075C00000BC
S113006073C0000025C200006FC000006DC0000016
S11300706BC0000069C0000067C0000065C00000DC
S113008063C0000061C000005FC000005DC00000EC
S11300905BC0000059C0000057C0000055C00000FC
S11300A053C0000051C000004FC000004DC000000C
S11300B04BC0000049C0000047C0000045C000001C
S11300C043C0000041C000003FC000003DC000002C
S11300D03BC0000039C0000037C0000035C000003C
S11300E033C000007A0287028D028D028D028D02D8
S11300F085028D028D028D0281028D028D027C02A9
S11301008D027E028D028D02830211241FBECFEF69
S1130110D1E2DEBFCDBF00E00CBF12E0A0E0B2E050
S1130120EEEAFAE000E00BBF02C007900D92A6369B
S1130130B107D9F722E0A6E6B2E001C01D92AD36C0
S1130140B207E1F79ED1B1C45BCF2FB7F894E0ECCE
S1130150F0E0908195FFFDCF8093C6002FBF80E033
S113016090E00895E0ECF0E080818823ECF7809142
S1130170C60090E008951092C50088E08093C40002
S1130180E0ECF0E080818260808388E98093C100A4
S113019086E08093C20080E092E090936A028093AC
S11301A0690208952FEF21B927B982B998B995E06A
S11301B09A95F1F7000080FF18C02898299A299889
S11301C085E08A95F1F70000289A11B817B812B89B
S11301D018B895E09A95F1F700002A9885E08A9579
S11301E0F1F7000086B12A9A0895299A299895E092
S11301F09A95F1F7000011B817B812B818B885E04D
S11302008A95F1F700002A9895E09A95F1F7000095
S113021080B1E9CF2FEF21B927B982B998B995E018
S11302209A95F1F7000080FF20C02898299A299810
S113023085E08A95F1F70000289A68B995E09A95C7
S1130240F1F700002B9885E08A95F1F700002B9ACE
S113025095E09A95F1F7000011B817B812B818B8DC
S113026085E08A95F1F700000895299A299895E088
S11302709A95F1F7000062B9E1CF2A9A2B9A289A4D
S113028029982C9A1D9BFECF84B18F6084B9089560
S113029084B1807F84B92C981D99FECF2A982B981D
S11302A02898299808952E9A8FE39CE90197F1F7ED
S11302B000C000002E980895CF92DF92EF92FF9233
S11302C0CF93C4E060E070E0CB01CC24D62EE72EBF
S11302D0F82E48DF092E000CAA0BBB0BBC01CD0184
S11302E06C297D298E299F29C15079F7CF91FF90E0
S11302F0EF90DF90CF9008958F929F92AF92BF922C
S1130300CF92DF92EF92FF92CF93DF93D5DF4B0131
S11303105C01D2DFE4016B017C01C80CD91CEA1C2E
S1130320FB1C092C000CAA08BB088C149D04AE0409
S1130330BF0480F4CE0136DF60E070E006DF219672
S1130340CE010D2E000CAA0BBB0B8C159D05AE0522
S1130350BF0580F3DF91CF91FF90EF90DF90CF90B6
S1130360BF90AF909F908F9008958F929F92AF927D
S1130370BF92CF92DF92EF92FF92CF93DF939CDFF5
S11303804B015C0199DFE4016B017C01C80CD91CB1
S1130390EA1CFB1C092C000CAA08BB088C149D0445
S11303A0AE04BF0478F4DEDE682FCE0133DF21967D
S11303B0CE010D2E000CAA0BBB0B8C159D05AE05B2
S11303C0BF0588F3DF91CF91FF90EF90DF90CF903E
S11303D0BF90AF909F908F900895C4DEA09A91999A
S11303E0FECFA098919BFECF9199FECF9FEF91B93C
S11303F082B9919BFECF11B812B80895FF920F9362
S11304001F93CF93DF93199907C086B1C0B1199B8D
S1130410FCCFD0E0D82B02C0C0E0D0E01A9B02C0D1
S11304201B99FCCFF3B006B110E0102F002780B168
S1130430082B23DFF2FC08C089E392E09F938F939B
S113044087D00F900F9007C084E492E09F938F931E
S11304507FD00F900F901F930F93DF93CF938EE471
S113046092E09F938F9374D013DF0F900F900F90AF
S11304700F900F900F90DF91CF911F910F91FF90EC
S1130480089579DE249A2598269A84B38C7F84BBB8
S1130490989A2E9A8FE39CE90197F1F700C0000027
S11304A02E987894809166028823E1F3A7DFFACF2F
S11304B01F920F920FB60F9211240BB60F922F9327
S11304C03F934F935F936F937F938F939F93AF93D8
S11304D0BF93EF93FF93E091C6008E2F90E0FC0151
S11304E0E356F109E331F105C0F48827EE58FF4FD4
S11304F08F4F26C0CDDE11C0C0DE0FC0D4DEBDDEFE
S11305000CC0FADE0AC031DF08C067DF06C0909174
S1130510660281E0892780936602FF91EF91BF9183
S1130520AF919F918F917F916F915F914F913F9187
S11305302F910F900BBE0F900FBE0F901F90189528
S1130540EE0FFF1F881F8BBF0790F691E02D1994C3
S1130550CF93DF93CDB7DEB7AE014A5F5F4FFA01A9
S113056061917191AF018091690290916A0203D007
S1130570DF91CF9108952F923F924F925F926F92A5
S11305807F928F929F92AF92BF92CF92DF92EF921F
S1130590FF920F931F93CF93DF93CDB7DEB72C97C2
S11305A00FB6F894DEBF0FBECDBF7C016B018A018C
S11305B0FC0117821682838181FFB0C1CE010196AE
S11305C04C01F7019381F60193FD859193FF81918D
S11305D06F01882309F49EC1853239F493FD859116
S11305E093FF81916F01853221F4B70190E0C7D167
S11305F0E8CF512C312C20E02032A0F48B3269F06A
S113060030F4803259F0833269F420612CC08D3289
S113061039F0803339F4216026C02260246023C07D
S1130620286021C027FD27C030ED380F3A3078F418
S113063026FF06C0FAE05F9E300D1124532E13C02E
S11306408AE0389E300D1124332E20620CC08E3285
S113065021F426FD5FC1206406C08C3611F42068A5
S113066002C0883641F4F60193FD859193FF819190
S11306706F018111C1CF982F9F7D9554933028F439
S11306800C5F1F4FFFE3F9830DC0833631F08337CE
S113069071F0833509F057C021C0F8018081898346
S11306A00E5F1F4F44244394512C540114C038014D
S11306B0F2E06F0E711CF801A080B18026FF03C028
S11306C0652D70E002C06FEF7FEFC5012C874CD120
S11306D02C0183012C852F77222E16C03801F2E0DD
S11306E06F0E711CF801A080B18026FF03C0652D38
S11306F070E002C06FEF7FEFC5012C872AD12C0177
S11307002C852068222E830123FC19C0832D90E0C0
S113071048165906A0F4B70180E290E030D13A942B
S1130720F5CFF50127FC859127FE81915F01B70183
S113073090E025D131103A94F1E04F1A5108411458
S1130740510479F7DEC0843611F0893631F5F801A9
S113075027FF07C060817181828193810C5F1F4FE5
S113076008C060817181072E000C880B990B0E5F05
S11307701F4F2F76722E97FF09C090958095709524
S113078061957F4F8F4F9F4F2068722E2AE030E093
S1130790A4012DD1A82EA81843C0853729F42F7E93
S11307A0B22E2AE030E025C0F22FF97FBF2E8F361B
S11307B0C1F018F4883579F0ADC0803719F0883766
S11307C021F0A8C02F2F2061B22EB4FE0DC08B2DB6
S11307D08460B82E09C024FF0AC09F2F9660B92EEA
S11307E006C028E030E005C020E130E002C020E18E
S11307F032E0F801B7FE07C0608171818281938184
S11308000C5F1F4F06C06081718180E090E00E5F35
S11308101F4FA401ECD0A82EA818FB2DFF777F2E24
S113082076FE0BC0372D3E7FA51450F474FE0AC02B
S113083072FC08C0372D3E7E05C0BA2C372D03C08C
S1130840BA2C01C0B52C34FF0DC0FE01EA0DF11D18
S11308508081803311F4397E09C032FF06C0B3941D
S1130860B39404C0832F867809F0B39433FD12C087
S113087030FF06C05A2CB31418F4530C5B18B32C75
S1130880B31460F4B70180E290E03C8778D0B3946D
S11308903C85F6CFB31410F43B1801C0312C34FF5F
S11308A011C0B70180E390E03C8769D03C8532FFFA
S11308B016C031FD03C088E790E002C088E590E0EF
S11308C0B7010CC0832F867851F031FF02C08BE250
S11308D001C080E237FD8DE2B70190E050D0A5144D
S11308E030F4B70180E390E04AD05A94F8CFAA9448
S11308F0F401EA0DF11D8081B70190E040D0A11010
S1130900F6CF332009F45DCEB70180E290E037D012
S11309103A94F7CFF7018681978102C08FEF9FEF5A
S11309202C960FB6F894DEBF0FBECDBFDF91CF91EA
S11309301F910F91FF90EF90DF90CF90BF90AF90F9
S11309409F908F907F906F905F904F903F902F90EB
S11309500895FC010590615070400110D8F780950E
S113096090958E0F9F1F0895FC0161507040019077
S11309700110D8F7809590958E0F9F1F08950F93BF
S11309801F93CF93DF93FB01238121FD03C08FEFDE
S11309909FEF28C022FF16C04681578124813581EC
S11309A04217530744F4A081B1819D012F5F3F4F4B
S11309B0318320838C93268137812F5F3F4F378388
S11309C0268310C0EB01092F182F0084F185E02D38
S11309D01995892BE1F68E819F8101969F838E83E1
S11309E0812F902FDF91CF911F910F910895FA01DC
S11309F0AA27283051F1203181F1E8946F936E7F5A
S1130A006E5F7F4F8F4F9F4FAF4FB1E03ED0B4E04A
S1130A103CD0670F781F891F9A1FA11D680F791F8B
S1130A208A1F911DA11D6A0F711D811D911DA11D9C
S1130A3020D009F468943F912AE0269F11243019AC
S1130A40305D3193DEF6CF010895462F4770405D47
S1130A504193B3E00FD0C9F7F6CF462F4F70405DF6
S1130A604A3318F0495D31FD4052419302D0A9F751
S1130A70EACFB4E0A6959795879577956795BA954B
S1130A80C9F700976105710508959B01AC010A2E11
S1130A9006945795479537952795BA95C9F7620FE8
S1110AA0731F841F951FA01D0895F894FFCFA7
S1130AAE0000000200000000A500B2000000616614
S1130ABE7465722073746167652023332C2025645A
S1130ACE206572726F72730A00253033583A2020F3
S1130ADE202000253032582C007265616420667225
S1130AEE6F6D2000777269746520746F20006164E5
S1130AFE647265737320252E3258206461746120EC
S1090B0E252E32580A00F6
S9030000FC
